{
    "contractName": "ERC20",
    "abi": [
        {
            "inputs": [
                {
                    "internalType": "string",
                    "name": "_name",
                    "type": "string"
                },
                {
                    "internalType": "string",
                    "name": "_symbol",
                    "type": "string"
                },
                {
                    "internalType": "uint256",
                    "name": "initialSupply",
                    "type": "uint256"
                },
                {
                    "internalType": "address",
                    "name": "shop",
                    "type": "address"
                }
            ],
            "stateMutability": "nonpayable",
            "type": "constructor"
        },
        {
            "anonymous": false,
            "inputs": [
                {
                    "indexed": true,
                    "internalType": "address",
                    "name": "_owner",
                    "type": "address"
                },
                {
                    "indexed": true,
                    "internalType": "address",
                    "name": "_to",
                    "type": "address"
                },
                {
                    "indexed": false,
                    "internalType": "uint256",
                    "name": "_amount",
                    "type": "uint256"
                }
            ],
            "name": "Approve",
            "type": "event"
        },
        {
            "anonymous": false,
            "inputs": [
                {
                    "indexed": true,
                    "internalType": "address",
                    "name": "_from",
                    "type": "address"
                },
                {
                    "indexed": true,
                    "internalType": "address",
                    "name": "_to",
                    "type": "address"
                },
                {
                    "indexed": false,
                    "internalType": "uint256",
                    "name": "_amount",
                    "type": "uint256"
                }
            ],
            "name": "Transfer",
            "type": "event"
        },
        {
            "inputs": [
                {
                    "internalType": "address",
                    "name": "_owner",
                    "type": "address"
                },
                {
                    "internalType": "address",
                    "name": "_spender",
                    "type": "address"
                }
            ],
            "name": "allowance",
            "outputs": [
                {
                    "internalType": "uint256",
                    "name": "",
                    "type": "uint256"
                }
            ],
            "stateMutability": "view",
            "type": "function"
        },
        {
            "inputs": [
                {
                    "internalType": "address",
                    "name": "_spender",
                    "type": "address"
                },
                {
                    "internalType": "uint256",
                    "name": "_amount",
                    "type": "uint256"
                }
            ],
            "name": "approve",
            "outputs": [],
            "stateMutability": "nonpayable",
            "type": "function"
        },
        {
            "inputs": [
                {
                    "internalType": "address",
                    "name": "account",
                    "type": "address"
                }
            ],
            "name": "balanceOf",
            "outputs": [
                {
                    "internalType": "uint256",
                    "name": "",
                    "type": "uint256"
                }
            ],
            "stateMutability": "view",
            "type": "function"
        },
        {
            "inputs": [
                {
                    "internalType": "address",
                    "name": "_from",
                    "type": "address"
                },
                {
                    "internalType": "uint256",
                    "name": "_amount",
                    "type": "uint256"
                }
            ],
            "name": "burnTokens",
            "outputs": [],
            "stateMutability": "nonpayable",
            "type": "function"
        },
        {
            "inputs": [],
            "name": "decimals",
            "outputs": [
                {
                    "internalType": "uint256",
                    "name": "",
                    "type": "uint256"
                }
            ],
            "stateMutability": "pure",
            "type": "function"
        },
        {
            "inputs": [
                {
                    "internalType": "uint256",
                    "name": "_amount",
                    "type": "uint256"
                },
                {
                    "internalType": "address",
                    "name": "_shop",
                    "type": "address"
                }
            ],
            "name": "mint",
            "outputs": [],
            "stateMutability": "nonpayable",
            "type": "function"
        },
        {
            "inputs": [],
            "name": "name",
            "outputs": [
                {
                    "internalType": "string",
                    "name": "",
                    "type": "string"
                }
            ],
            "stateMutability": "view",
            "type": "function"
        },
        {
            "inputs": [],
            "name": "symbol",
            "outputs": [
                {
                    "internalType": "string",
                    "name": "",
                    "type": "string"
                }
            ],
            "stateMutability": "view",
            "type": "function"
        },
        {
            "inputs": [],
            "name": "totalSuply",
            "outputs": [
                {
                    "internalType": "uint256",
                    "name": "",
                    "type": "uint256"
                }
            ],
            "stateMutability": "view",
            "type": "function"
        },
        {
            "inputs": [
                {
                    "internalType": "address",
                    "name": "_to",
                    "type": "address"
                },
                {
                    "internalType": "uint256",
                    "name": "amount",
                    "type": "uint256"
                }
            ],
            "name": "transfer",
            "outputs": [],
            "stateMutability": "nonpayable",
            "type": "function"
        },
        {
            "inputs": [
                {
                    "internalType": "address",
                    "name": "_sender",
                    "type": "address"
                },
                {
                    "internalType": "address",
                    "name": "_recipient",
                    "type": "address"
                },
                {
                    "internalType": "uint256",
                    "name": "_amount",
                    "type": "uint256"
                }
            ],
            "name": "transferFrom",
            "outputs": [],
            "stateMutability": "nonpayable",
            "type": "function"
        }
    ],
    "bytecode": "60806040523480156200001157600080fd5b5060405162000c9238038062000c92833981016040819052620000349162000220565b600462000042858262000343565b50600562000051848262000343565b50600180546001600160a01b031916331790556200007082826200007a565b5050505062000437565b6001546001600160a01b03163314620000c85760405162461bcd60e51b815260206004820152600c60248201526b3737ba1030b71037bbb732b960a11b604482015260640160405180910390fd5b6001600160a01b03811660009081526002602052604081208054849290620000f29084906200040f565b92505081905550816000808282546200010c91906200040f565b90915550506040518281526001600160a01b038216906000907fddf252ad1be2c89b69c2b068fc378daa952ba7f163c4a11628f55a4df523b3ef9060200160405180910390a35050565b505050565b634e487b7160e01b600052604160045260246000fd5b600082601f8301126200018357600080fd5b81516001600160401b0380821115620001a057620001a06200015b565b604051601f8301601f19908116603f01168101908282118183101715620001cb57620001cb6200015b565b81604052838152602092508683858801011115620001e857600080fd5b600091505b838210156200020c5785820183015181830184015290820190620001ed565b600093810190920192909252949350505050565b600080600080608085870312156200023757600080fd5b84516001600160401b03808211156200024f57600080fd5b6200025d8883890162000171565b955060208701519150808211156200027457600080fd5b50620002838782880162000171565b60408701516060880151919550935090506001600160a01b0381168114620002aa57600080fd5b939692955090935050565b600181811c90821680620002ca57607f821691505b602082108103620002eb57634e487b7160e01b600052602260045260246000fd5b50919050565b601f8211156200015657600081815260208120601f850160051c810160208610156200031a5750805b601f850160051c820191505b818110156200033b5782815560010162000326565b505050505050565b81516001600160401b038111156200035f576200035f6200015b565b6200037781620003708454620002b5565b84620002f1565b602080601f831160018114620003af5760008415620003965750858301515b600019600386901b1c1916600185901b1785556200033b565b600085815260208120601f198616915b82811015620003e057888601518255948401946001909101908401620003bf565b5085821015620003ff5787850151600019600388901b60f8161c191681555b5050505050600190811b01905550565b808201808211156200043157634e487b7160e01b600052601160045260246000fd5b92915050565b61084b80620004476000396000f3fe608060405234801561001057600080fd5b50600436106100a95760003560e01c806370a082311161007157806370a082311461011857806394bf804d1461014157806395d89b4114610154578063a2a967991461015c578063a9059cbb14610164578063dd62ed3e1461017757600080fd5b806306fdde03146100ae578063095ea7b3146100cc5780630d1118ce146100e157806323b872dd146100f4578063313ce56714610107575b600080fd5b6100b661018a565b6040516100c39190610657565b60405180910390f35b6100df6100da3660046106c1565b61021c565b005b6100df6100ef3660046106c1565b61027c565b6100df6101023660046106eb565b610313565b60125b6040519081526020016100c3565b61010a610126366004610727565b6001600160a01b031660009081526002602052604090205490565b6100df61014f366004610749565b610463565b6100b661052f565b60005461010a565b6100df6101723660046106c1565b61053e565b61010a610185366004610775565b61062a565b6060600480546101999061079f565b80601f01602080910402602001604051908101604052809291908181526020018280546101c59061079f565b80156102125780601f106101e757610100808354040283529160200191610212565b820191906000526020600020905b8154815290600101906020018083116101f557829003601f168201915b5050505050905090565b3360008181526003602090815260408083206001600160a01b03871680855290835292819020859055518481529192917f6e11fb1b7f119e3f2fa29896ef5fdf8b8a2d0d4df6fe90ba8668e7d8b2ffa25e91015b60405180910390a35050565b6001546001600160a01b031633146102ca5760405162461bcd60e51b815260206004820152600c60248201526b3737ba1030b71037bbb732b960a11b60448201526064015b60405180910390fd5b6001600160a01b038216600090815260026020526040812080548392906102f29084906107ef565b925050819055508060008082825461030a91906107ef565b90915550505050565b828180610335836001600160a01b031660009081526002602052604090205490565b10156103775760405162461bcd60e51b81526020600482015260116024820152706e6f7420656e6f75676820746f6b656e7360781b60448201526064016102c1565b6001600160a01b038086166000908152600360209081526040808320938816835292905290812080548592906103ae9084906107ef565b90915550506001600160a01b038516600090815260026020526040812080548592906103db9084906107ef565b90915550506001600160a01b03841660009081526002602052604081208054859290610408908490610802565b92505081905550836001600160a01b0316856001600160a01b03167fddf252ad1be2c89b69c2b068fc378daa952ba7f163c4a11628f55a4df523b3ef8560405161045491815260200190565b60405180910390a35050505050565b6001546001600160a01b031633146104ac5760405162461bcd60e51b815260206004820152600c60248201526b3737ba1030b71037bbb732b960a11b60448201526064016102c1565b6001600160a01b038116600090815260026020526040812080548492906104d4908490610802565b92505081905550816000808282546104ec9190610802565b90915550506040518281526001600160a01b038216906000907fddf252ad1be2c89b69c2b068fc378daa952ba7f163c4a11628f55a4df523b3ef90602001610270565b6060600580546101999061079f565b3360008181526002602052604090205482908111156105935760405162461bcd60e51b81526020600482015260116024820152706e6f7420656e6f75676820746f6b656e7360781b60448201526064016102c1565b33600090815260026020526040812080548592906105b29084906107ef565b90915550506001600160a01b038416600090815260026020526040812080548592906105df908490610802565b90915550506040518381526001600160a01b0385169033907fddf252ad1be2c89b69c2b068fc378daa952ba7f163c4a11628f55a4df523b3ef9060200160405180910390a350505050565b6001600160a01b038083166000908152600360209081526040808320938516835292905220545b92915050565b600060208083528351808285015260005b8181101561068457858101830151858201604001528201610668565b506000604082860101526040601f19601f8301168501019250505092915050565b80356001600160a01b03811681146106bc57600080fd5b919050565b600080604083850312156106d457600080fd5b6106dd836106a5565b946020939093013593505050565b60008060006060848603121561070057600080fd5b610709846106a5565b9250610717602085016106a5565b9150604084013590509250925092565b60006020828403121561073957600080fd5b610742826106a5565b9392505050565b6000806040838503121561075c57600080fd5b8235915061076c602084016106a5565b90509250929050565b6000806040838503121561078857600080fd5b610791836106a5565b915061076c602084016106a5565b600181811c908216806107b357607f821691505b6020821081036107d357634e487b7160e01b600052602260045260246000fd5b50919050565b634e487b7160e01b600052601160045260246000fd5b81810381811115610651576106516107d9565b80820180821115610651576106516107d956fea264697066735822122054d394a4a4a6517859cd0b38afe4b684d4f5d039877c01783e3e29e4c2cd051d64736f6c63430008130033",
    "sourcePath": "/Users/vovanovosad/Desktop/solidity/MyToken/contracts/ERC20.sol",
    "compiler": {
        "name": "solc",
        "version": "0.8.19+commit.7dd6d404"
    },
    "functionHashes": {
        "allowance(address,address)": "dd62ed3e",
        "approve(address,uint256)": "095ea7b3",
        "balanceOf(address)": "70a08231",
        "burnTokens(address,uint256)": "0d1118ce",
        "decimals()": "313ce567",
        "mint(uint256,address)": "94bf804d",
        "name()": "06fdde03",
        "symbol()": "95d89b41",
        "totalSuply()": "a2a96799",
        "transfer(address,uint256)": "a9059cbb",
        "transferFrom(address,address,uint256)": "23b872dd"
    },
    "gasEstimates": {
        "creation": {
            "codeDepositCost": "424600",
            "executionCost": "infinite",
            "totalCost": "infinite"
        },
        "external": {
            "allowance(address,address)": "infinite",
            "approve(address,uint256)": "24437",
            "balanceOf(address)": "2537",
            "burnTokens(address,uint256)": "infinite",
            "decimals()": "270",
            "mint(uint256,address)": "infinite",
            "name()": "infinite",
            "symbol()": "infinite",
            "totalSuply()": "2358",
            "transfer(address,uint256)": "infinite",
            "transferFrom(address,address,uint256)": "infinite"
        },
        "internal": {
            "_approve(address,address,uint256)": "infinite",
            "beforeTokenTransfer(address,address,uint256)": "infinite"
        }
    }
}