{
    "contractName": "MyShop",
    "abi": [
        {
            "inputs": [],
            "stateMutability": "nonpayable",
            "type": "constructor"
        },
        {
            "anonymous": false,
            "inputs": [
                {
                    "indexed": true,
                    "internalType": "address",
                    "name": "_buyer",
                    "type": "address"
                },
                {
                    "indexed": false,
                    "internalType": "uint256",
                    "name": "_amount",
                    "type": "uint256"
                }
            ],
            "name": "Bought",
            "type": "event"
        },
        {
            "anonymous": false,
            "inputs": [
                {
                    "indexed": true,
                    "internalType": "address",
                    "name": "_seller",
                    "type": "address"
                },
                {
                    "indexed": false,
                    "internalType": "uint256",
                    "name": "_amount",
                    "type": "uint256"
                }
            ],
            "name": "Sold",
            "type": "event"
        },
        {
            "inputs": [],
            "name": "owner",
            "outputs": [
                {
                    "internalType": "address payable",
                    "name": "",
                    "type": "address"
                }
            ],
            "stateMutability": "view",
            "type": "function"
        },
        {
            "inputs": [
                {
                    "internalType": "uint256",
                    "name": "_amount",
                    "type": "uint256"
                }
            ],
            "name": "sellToken",
            "outputs": [],
            "stateMutability": "nonpayable",
            "type": "function"
        },
        {
            "inputs": [],
            "name": "shopBalance",
            "outputs": [
                {
                    "internalType": "uint256",
                    "name": "",
                    "type": "uint256"
                }
            ],
            "stateMutability": "view",
            "type": "function"
        },
        {
            "inputs": [],
            "name": "token",
            "outputs": [
                {
                    "internalType": "contract IERC20",
                    "name": "",
                    "type": "address"
                }
            ],
            "stateMutability": "view",
            "type": "function"
        },
        {
            "stateMutability": "payable",
            "type": "receive"
        }
    ],
    "bytecode": "608060405234801561001057600080fd5b503060405161001e9061007a565b6001600160a01b039091168152602001604051809103906000f08015801561004a573d6000803e3d6000fd5b50600080546001600160a01b03929092166001600160a01b03199283161790556001805490911633179055610087565b610bce806105e483390190565b61054e806100966000396000f3fe6080604052600436106100435760003560e01c80632397e4d7146101795780634d1607bc1461019b5780638da5cb5b146101c3578063fc0c546a146101fb57600080fd5b3661017457348061008e5760405162461bcd60e51b815260206004820152601060248201526f6e6f7420656e6f7567682066756e647360801b60448201526064015b60405180910390fd5b8061009761021b565b10156100d95760405162461bcd60e51b81526020600482015260116024820152706e6f7420656e6f75676820746f6b656e7360781b6044820152606401610085565b60005460405163a9059cbb60e01b8152336004820152602481018390526001600160a01b039091169063a9059cbb90604401600060405180830381600087803b15801561012557600080fd5b505af1158015610139573d6000803e3d6000fd5b50506040518381523392507fc55650ccda1011e1cdc769b1fbf546ebb8c97800b6072b49e06cd560305b1d67915060200160405180910390a2005b600080fd5b34801561018557600080fd5b506101996101943660046104e6565b61028d565b005b3480156101a757600080fd5b506101b061021b565b6040519081526020015b60405180910390f35b3480156101cf57600080fd5b506001546101e3906001600160a01b031681565b6040516001600160a01b0390911681526020016101ba565b34801561020757600080fd5b506000546101e3906001600160a01b031681565b600080546040516370a0823160e01b81523060048201526001600160a01b03909116906370a0823190602401602060405180830381865afa158015610264573d6000803e3d6000fd5b505050506040513d601f19601f8201168201806040525081019061028891906104ff565b905090565b60008111801561030757506000546040516370a0823160e01b815233600482015282916001600160a01b0316906370a0823190602401602060405180830381865afa1580156102e0573d6000803e3d6000fd5b505050506040513d601f19601f8201168201806040525081019061030491906104ff565b10155b61035e5760405162461bcd60e51b815260206004820152602260248201527f696e636f727265637420616d6f756e74206f6620746f6b656e7320746f2073656044820152611b1b60f21b6064820152608401610085565b60008054604051636eb1769f60e11b81523360048201523060248201526001600160a01b039091169063dd62ed3e90604401602060405180830381865afa1580156103ad573d6000803e3d6000fd5b505050506040513d601f19601f820116820180604052508101906103d191906104ff565b9050818110156104155760405162461bcd60e51b815260206004820152600f60248201526e30b63637bbb0b731b29032b93937b960891b6044820152606401610085565b6000546040516323b872dd60e01b8152336004820152306024820152604481018490526001600160a01b03909116906323b872dd90606401600060405180830381600087803b15801561046757600080fd5b505af115801561047b573d6000803e3d6000fd5b505060405133925084156108fc02915084906000818181858888f193505050501580156104ac573d6000803e3d6000fd5b5060405182815233907fae92ab4b6f8f401ead768d3273e6bb937a13e39827d19c6376e8fd4512a05d9a9060200160405180910390a25050565b6000602082840312156104f857600080fd5b5035919050565b60006020828403121561051157600080fd5b505191905056fea2646970667358221220b1c138606246b9dcf6b388ee6b090acedaa257e775eef689b6bff3a38b3476c564736f6c6343000813003360806040523480156200001157600080fd5b5060405162000bce38038062000bce8339810160408190526200003491620001a9565b6040518060400160405280600d81526020016c2737bb37b9b0b2102a37b5b2b760991b81525060405180604001604052806004815260200163139594d560e21b81525064e8d4a510008383600490816200008f91906200027f565b5060056200009e84826200027f565b50600180546001600160a01b03191633179055620000bd8282620000c8565b505050505062000373565b6001546001600160a01b03163314620001165760405162461bcd60e51b815260206004820152600c60248201526b3737ba1030b71037bbb732b960a11b604482015260640160405180910390fd5b6001600160a01b03811660009081526002602052604081208054849290620001409084906200034b565b92505081905550816000808282546200015a91906200034b565b90915550506040518281526001600160a01b038216906000907fddf252ad1be2c89b69c2b068fc378daa952ba7f163c4a11628f55a4df523b3ef9060200160405180910390a35050565b505050565b600060208284031215620001bc57600080fd5b81516001600160a01b0381168114620001d457600080fd5b9392505050565b634e487b7160e01b600052604160045260246000fd5b600181811c908216806200020657607f821691505b6020821081036200022757634e487b7160e01b600052602260045260246000fd5b50919050565b601f821115620001a457600081815260208120601f850160051c81016020861015620002565750805b601f850160051c820191505b81811015620002775782815560010162000262565b505050505050565b81516001600160401b038111156200029b576200029b620001db565b620002b381620002ac8454620001f1565b846200022d565b602080601f831160018114620002eb5760008415620002d25750858301515b600019600386901b1c1916600185901b17855562000277565b600085815260208120601f198616915b828110156200031c57888601518255948401946001909101908401620002fb565b50858210156200033b5787850151600019600388901b60f8161c191681555b5050505050600190811b01905550565b808201808211156200036d57634e487b7160e01b600052601160045260246000fd5b92915050565b61084b80620003836000396000f3fe608060405234801561001057600080fd5b50600436106100a95760003560e01c806370a082311161007157806370a082311461011857806394bf804d1461014157806395d89b4114610154578063a2a967991461015c578063a9059cbb14610164578063dd62ed3e1461017757600080fd5b806306fdde03146100ae578063095ea7b3146100cc5780630d1118ce146100e157806323b872dd146100f4578063313ce56714610107575b600080fd5b6100b661018a565b6040516100c39190610657565b60405180910390f35b6100df6100da3660046106c1565b61021c565b005b6100df6100ef3660046106c1565b61027c565b6100df6101023660046106eb565b610313565b60125b6040519081526020016100c3565b61010a610126366004610727565b6001600160a01b031660009081526002602052604090205490565b6100df61014f366004610749565b610463565b6100b661052f565b60005461010a565b6100df6101723660046106c1565b61053e565b61010a610185366004610775565b61062a565b6060600480546101999061079f565b80601f01602080910402602001604051908101604052809291908181526020018280546101c59061079f565b80156102125780601f106101e757610100808354040283529160200191610212565b820191906000526020600020905b8154815290600101906020018083116101f557829003601f168201915b5050505050905090565b3360008181526003602090815260408083206001600160a01b03871680855290835292819020859055518481529192917f6e11fb1b7f119e3f2fa29896ef5fdf8b8a2d0d4df6fe90ba8668e7d8b2ffa25e91015b60405180910390a35050565b6001546001600160a01b031633146102ca5760405162461bcd60e51b815260206004820152600c60248201526b3737ba1030b71037bbb732b960a11b60448201526064015b60405180910390fd5b6001600160a01b038216600090815260026020526040812080548392906102f29084906107ef565b925050819055508060008082825461030a91906107ef565b90915550505050565b828180610335836001600160a01b031660009081526002602052604090205490565b10156103775760405162461bcd60e51b81526020600482015260116024820152706e6f7420656e6f75676820746f6b656e7360781b60448201526064016102c1565b6001600160a01b038086166000908152600360209081526040808320938816835292905290812080548592906103ae9084906107ef565b90915550506001600160a01b038516600090815260026020526040812080548592906103db9084906107ef565b90915550506001600160a01b03841660009081526002602052604081208054859290610408908490610802565b92505081905550836001600160a01b0316856001600160a01b03167fddf252ad1be2c89b69c2b068fc378daa952ba7f163c4a11628f55a4df523b3ef8560405161045491815260200190565b60405180910390a35050505050565b6001546001600160a01b031633146104ac5760405162461bcd60e51b815260206004820152600c60248201526b3737ba1030b71037bbb732b960a11b60448201526064016102c1565b6001600160a01b038116600090815260026020526040812080548492906104d4908490610802565b92505081905550816000808282546104ec9190610802565b90915550506040518281526001600160a01b038216906000907fddf252ad1be2c89b69c2b068fc378daa952ba7f163c4a11628f55a4df523b3ef90602001610270565b6060600580546101999061079f565b3360008181526002602052604090205482908111156105935760405162461bcd60e51b81526020600482015260116024820152706e6f7420656e6f75676820746f6b656e7360781b60448201526064016102c1565b33600090815260026020526040812080548592906105b29084906107ef565b90915550506001600160a01b038416600090815260026020526040812080548592906105df908490610802565b90915550506040518381526001600160a01b0385169033907fddf252ad1be2c89b69c2b068fc378daa952ba7f163c4a11628f55a4df523b3ef9060200160405180910390a350505050565b6001600160a01b038083166000908152600360209081526040808320938516835292905220545b92915050565b600060208083528351808285015260005b8181101561068457858101830151858201604001528201610668565b506000604082860101526040601f19601f8301168501019250505092915050565b80356001600160a01b03811681146106bc57600080fd5b919050565b600080604083850312156106d457600080fd5b6106dd836106a5565b946020939093013593505050565b60008060006060848603121561070057600080fd5b610709846106a5565b9250610717602085016106a5565b9150604084013590509250925092565b60006020828403121561073957600080fd5b610742826106a5565b9392505050565b6000806040838503121561075c57600080fd5b8235915061076c602084016106a5565b90509250929050565b6000806040838503121561078857600080fd5b610791836106a5565b915061076c602084016106a5565b600181811c908216806107b357607f821691505b6020821081036107d357634e487b7160e01b600052602260045260246000fd5b50919050565b634e487b7160e01b600052601160045260246000fd5b81810381811115610651576106516107d9565b80820180821115610651576106516107d956fea264697066735822122057df79bd5c7ae3fc9f9e50f250f1d4f4bb73d178a6211840d830a0bc6b3aed5064736f6c63430008130033",
    "sourcePath": "/Users/vovanovosad/Desktop/solidity/MyToken/contracts/NVST.sol",
    "compiler": {
        "name": "solc",
        "version": "0.8.19+commit.7dd6d404"
    },
    "functionHashes": {
        "owner()": "8da5cb5b",
        "sellToken(uint256)": "2397e4d7",
        "shopBalance()": "4d1607bc",
        "token()": "fc0c546a"
    },
    "gasEstimates": {
        "creation": {
            "codeDepositCost": "271600",
            "executionCost": "infinite",
            "totalCost": "infinite"
        },
        "external": {
            "owner()": "2359",
            "sellToken(uint256)": "infinite",
            "shopBalance()": "infinite",
            "token()": "2381"
        }
    }
}