{
  "_format": "hh-sol-artifact-1",
  "contractName": "MyShop",
  "sourceName": "contracts/NVST.sol",
  "abi": [
    {
      "inputs": [],
      "stateMutability": "nonpayable",
      "type": "constructor"
    },
    {
      "anonymous": false,
      "inputs": [
        {
          "indexed": true,
          "internalType": "address",
          "name": "_buyer",
          "type": "address"
        },
        {
          "indexed": false,
          "internalType": "uint256",
          "name": "_amount",
          "type": "uint256"
        }
      ],
      "name": "Bought",
      "type": "event"
    },
    {
      "anonymous": false,
      "inputs": [
        {
          "indexed": true,
          "internalType": "address",
          "name": "_seller",
          "type": "address"
        },
        {
          "indexed": false,
          "internalType": "uint256",
          "name": "_amount",
          "type": "uint256"
        }
      ],
      "name": "Sold",
      "type": "event"
    },
    {
      "inputs": [],
      "name": "owner",
      "outputs": [
        {
          "internalType": "address payable",
          "name": "",
          "type": "address"
        }
      ],
      "stateMutability": "view",
      "type": "function"
    },
    {
      "inputs": [
        {
          "internalType": "uint256",
          "name": "_amount",
          "type": "uint256"
        }
      ],
      "name": "sellToken",
      "outputs": [],
      "stateMutability": "nonpayable",
      "type": "function"
    },
    {
      "inputs": [],
      "name": "shopBalance",
      "outputs": [
        {
          "internalType": "uint256",
          "name": "",
          "type": "uint256"
        }
      ],
      "stateMutability": "view",
      "type": "function"
    },
    {
      "inputs": [],
      "name": "token",
      "outputs": [
        {
          "internalType": "contract IERC20",
          "name": "",
          "type": "address"
        }
      ],
      "stateMutability": "view",
      "type": "function"
    },
    {
      "stateMutability": "payable",
      "type": "receive"
    }
  ],
  "bytecode": "0x608060405234801561001057600080fd5b503060405161001e9061007a565b6001600160a01b039091168152602001604051809103906000f08015801561004a573d6000803e3d6000fd5b50600080546001600160a01b03929092166001600160a01b03199283161790556001805490911633179055610087565b610b5a8061061283390190565b61057c806100966000396000f3fe6080604052600436106100435760003560e01c80632397e4d71461017a5780634d1607bc1461019c5780638da5cb5b146101c4578063fc0c546a146101fc57600080fd5b3661017557348061008e5760405162461bcd60e51b815260206004820152601060248201526f6e6f7420656e6f7567682066756e647360801b60448201526064015b60405180910390fd5b8061009761021c565b10156100d95760405162461bcd60e51b81526020600482015260116024820152706e6f7420656e6f75676820746f6b656e7360781b6044820152606401610085565b60005460405163a9059cbb60e01b8152336004820152602481018390526001600160a01b039091169063a9059cbb90604401600060405180830381600087803b15801561012557600080fd5b505af1158015610139573d6000803e3d6000fd5b50506040518381523392507fc55650ccda1011e1cdc769b1fbf546ebb8c97800b6072b49e06cd560305b1d67915060200160405180910390a250005b600080fd5b34801561018657600080fd5b5061019a610195366004610514565b61029d565b005b3480156101a857600080fd5b506101b161021c565b6040519081526020015b60405180910390f35b3480156101d057600080fd5b506001546101e4906001600160a01b031681565b6040516001600160a01b0390911681526020016101bb565b34801561020857600080fd5b506000546101e4906001600160a01b031681565b600080546040516370a0823160e01b81523060048201526001600160a01b03909116906370a082319060240160206040518083038186803b15801561026057600080fd5b505afa158015610274573d6000803e3d6000fd5b505050506040513d601f19601f82011682018060405250810190610298919061052d565b905090565b60008111801561032657506000546040516370a0823160e01b815233600482015282916001600160a01b0316906370a082319060240160206040518083038186803b1580156102eb57600080fd5b505afa1580156102ff573d6000803e3d6000fd5b505050506040513d601f19601f82011682018060405250810190610323919061052d565b10155b61037d5760405162461bcd60e51b815260206004820152602260248201527f696e636f727265637420616d6f756e74206f6620746f6b656e7320746f2073656044820152611b1b60f21b6064820152608401610085565b60008054604051636eb1769f60e11b81523360048201523060248201526001600160a01b039091169063dd62ed3e9060440160206040518083038186803b1580156103c757600080fd5b505afa1580156103db573d6000803e3d6000fd5b505050506040513d601f19601f820116820180604052508101906103ff919061052d565b9050818110156104435760405162461bcd60e51b815260206004820152600f60248201526e30b63637bbb0b731b29032b93937b960891b6044820152606401610085565b6000546040516323b872dd60e01b8152336004820152306024820152604481018490526001600160a01b03909116906323b872dd90606401600060405180830381600087803b15801561049557600080fd5b505af11580156104a9573d6000803e3d6000fd5b505060405133925084156108fc02915084906000818181858888f193505050501580156104da573d6000803e3d6000fd5b5060405182815233907fae92ab4b6f8f401ead768d3273e6bb937a13e39827d19c6376e8fd4512a05d9a9060200160405180910390a25050565b60006020828403121561052657600080fd5b5035919050565b60006020828403121561053f57600080fd5b505191905056fea2646970667358221220fca765c1b518d94ec35d9aec2393400e93e02b57dec9ac5086a3c7cc56e9e99a64736f6c6343000809003360806040523480156200001157600080fd5b5060405162000b5a38038062000b5a83398101604081905262000034916200025f565b6040518060400160405280600d81526020016c2737bb37b9b0b2102a37b5b2b760991b81525060405180604001604052806004815260200163139594d560e21b8152506b033b2e3c9fd0803ce80000008383600490805190602001906200009d929190620001b9565b508251620000b3906005906020860190620001b9565b50600180546001600160a01b03191633179055620000d28282620000dd565b5050505050620002f5565b6001546001600160a01b031633146200012b5760405162461bcd60e51b815260206004820152600c60248201526b3737ba1030b71037bbb732b960a11b604482015260640160405180910390fd5b6001600160a01b038116600090815260026020526040812080548492906200015590849062000291565b92505081905550816000808282546200016f919062000291565b90915550506040518281526001600160a01b038216906000907fddf252ad1be2c89b69c2b068fc378daa952ba7f163c4a11628f55a4df523b3ef9060200160405180910390a35050565b828054620001c790620002b8565b90600052602060002090601f016020900481019282620001eb576000855562000236565b82601f106200020657805160ff191683800117855562000236565b8280016001018555821562000236579182015b828111156200023657825182559160200191906001019062000219565b506200024492915062000248565b5090565b5b8082111562000244576000815560010162000249565b6000602082840312156200027257600080fd5b81516001600160a01b03811681146200028a57600080fd5b9392505050565b60008219821115620002b357634e487b7160e01b600052601160045260246000fd5b500190565b600181811c90821680620002cd57607f821691505b60208210811415620002ef57634e487b7160e01b600052602260045260246000fd5b50919050565b61085580620003056000396000f3fe608060405234801561001057600080fd5b50600436106100a95760003560e01c806370a082311161007157806370a082311461011857806394bf804d1461014157806395d89b4114610154578063a2a967991461015c578063a9059cbb14610164578063dd62ed3e1461017757600080fd5b806306fdde03146100ae578063095ea7b3146100cc5780630d1118ce146100e157806323b872dd146100f4578063313ce56714610107575b600080fd5b6100b66101b0565b6040516100c39190610650565b60405180910390f35b6100df6100da3660046106c1565b610242565b005b6100df6100ef3660046106c1565b6102a2565b6100df6101023660046106eb565b610339565b60125b6040519081526020016100c3565b61010a610126366004610727565b6001600160a01b031660009081526002602052604090205490565b6100df61014f366004610749565b610489565b6100b6610555565b60005461010a565b6100df6101723660046106c1565b610564565b61010a610185366004610775565b6001600160a01b03918216600090815260036020908152604080832093909416825291909152205490565b6060600480546101bf9061079f565b80601f01602080910402602001604051908101604052809291908181526020018280546101eb9061079f565b80156102385780601f1061020d57610100808354040283529160200191610238565b820191906000526020600020905b81548152906001019060200180831161021b57829003601f168201915b5050505050905090565b3360008181526003602090815260408083206001600160a01b03871680855290835292819020859055518481529192917f6e11fb1b7f119e3f2fa29896ef5fdf8b8a2d0d4df6fe90ba8668e7d8b2ffa25e91015b60405180910390a35050565b6001546001600160a01b031633146102f05760405162461bcd60e51b815260206004820152600c60248201526b3737ba1030b71037bbb732b960a11b60448201526064015b60405180910390fd5b6001600160a01b038216600090815260026020526040812080548392906103189084906107f0565b925050819055508060008082825461033091906107f0565b90915550505050565b82818061035b836001600160a01b031660009081526002602052604090205490565b101561039d5760405162461bcd60e51b81526020600482015260116024820152706e6f7420656e6f75676820746f6b656e7360781b60448201526064016102e7565b6001600160a01b038086166000908152600360209081526040808320938816835292905290812080548592906103d49084906107f0565b90915550506001600160a01b038516600090815260026020526040812080548592906104019084906107f0565b90915550506001600160a01b0384166000908152600260205260408120805485929061042e908490610807565b92505081905550836001600160a01b0316856001600160a01b03167fddf252ad1be2c89b69c2b068fc378daa952ba7f163c4a11628f55a4df523b3ef8560405161047a91815260200190565b60405180910390a35050505050565b6001546001600160a01b031633146104d25760405162461bcd60e51b815260206004820152600c60248201526b3737ba1030b71037bbb732b960a11b60448201526064016102e7565b6001600160a01b038116600090815260026020526040812080548492906104fa908490610807565b92505081905550816000808282546105129190610807565b90915550506040518281526001600160a01b038216906000907fddf252ad1be2c89b69c2b068fc378daa952ba7f163c4a11628f55a4df523b3ef90602001610296565b6060600580546101bf9061079f565b3360008181526002602052604090205482908111156105b95760405162461bcd60e51b81526020600482015260116024820152706e6f7420656e6f75676820746f6b656e7360781b60448201526064016102e7565b33600090815260026020526040812080548592906105d89084906107f0565b90915550506001600160a01b03841660009081526002602052604081208054859290610605908490610807565b90915550506040518381526001600160a01b0385169033907fddf252ad1be2c89b69c2b068fc378daa952ba7f163c4a11628f55a4df523b3ef9060200160405180910390a350505050565b600060208083528351808285015260005b8181101561067d57858101830151858201604001528201610661565b8181111561068f576000604083870101525b50601f01601f1916929092016040019392505050565b80356001600160a01b03811681146106bc57600080fd5b919050565b600080604083850312156106d457600080fd5b6106dd836106a5565b946020939093013593505050565b60008060006060848603121561070057600080fd5b610709846106a5565b9250610717602085016106a5565b9150604084013590509250925092565b60006020828403121561073957600080fd5b610742826106a5565b9392505050565b6000806040838503121561075c57600080fd5b8235915061076c602084016106a5565b90509250929050565b6000806040838503121561078857600080fd5b610791836106a5565b915061076c602084016106a5565b600181811c908216806107b357607f821691505b602082108114156107d457634e487b7160e01b600052602260045260246000fd5b50919050565b634e487b7160e01b600052601160045260246000fd5b600082821015610802576108026107da565b500390565b6000821982111561081a5761081a6107da565b50019056fea2646970667358221220059041f54c623f5702319439258c5cd6cad58ab7cd722267e4b28703df116f0564736f6c63430008090033",
  "linkReferences": {},
  "deployedLinkReferences": {}
}