{
  "_format": "hh-sol-artifact-1",
  "contractName": "NVST",
  "sourceName": "contracts/NVST.sol",
  "abi": [
    {
      "inputs": [
        {
          "internalType": "address",
          "name": "_shop",
          "type": "address"
        }
      ],
      "stateMutability": "nonpayable",
      "type": "constructor"
    },
    {
      "anonymous": false,
      "inputs": [
        {
          "indexed": true,
          "internalType": "address",
          "name": "_owner",
          "type": "address"
        },
        {
          "indexed": true,
          "internalType": "address",
          "name": "_to",
          "type": "address"
        },
        {
          "indexed": false,
          "internalType": "uint256",
          "name": "_amount",
          "type": "uint256"
        }
      ],
      "name": "Approve",
      "type": "event"
    },
    {
      "anonymous": false,
      "inputs": [
        {
          "indexed": true,
          "internalType": "address",
          "name": "_from",
          "type": "address"
        },
        {
          "indexed": true,
          "internalType": "address",
          "name": "_to",
          "type": "address"
        },
        {
          "indexed": false,
          "internalType": "uint256",
          "name": "_amount",
          "type": "uint256"
        }
      ],
      "name": "Transfer",
      "type": "event"
    },
    {
      "inputs": [
        {
          "internalType": "address",
          "name": "_owner",
          "type": "address"
        },
        {
          "internalType": "address",
          "name": "_spender",
          "type": "address"
        }
      ],
      "name": "allowance",
      "outputs": [
        {
          "internalType": "uint256",
          "name": "",
          "type": "uint256"
        }
      ],
      "stateMutability": "view",
      "type": "function"
    },
    {
      "inputs": [
        {
          "internalType": "address",
          "name": "_spender",
          "type": "address"
        },
        {
          "internalType": "uint256",
          "name": "_amount",
          "type": "uint256"
        }
      ],
      "name": "approve",
      "outputs": [],
      "stateMutability": "nonpayable",
      "type": "function"
    },
    {
      "inputs": [
        {
          "internalType": "address",
          "name": "account",
          "type": "address"
        }
      ],
      "name": "balanceOf",
      "outputs": [
        {
          "internalType": "uint256",
          "name": "",
          "type": "uint256"
        }
      ],
      "stateMutability": "view",
      "type": "function"
    },
    {
      "inputs": [
        {
          "internalType": "address",
          "name": "_from",
          "type": "address"
        },
        {
          "internalType": "uint256",
          "name": "_amount",
          "type": "uint256"
        }
      ],
      "name": "burnTokens",
      "outputs": [],
      "stateMutability": "nonpayable",
      "type": "function"
    },
    {
      "inputs": [],
      "name": "decimals",
      "outputs": [
        {
          "internalType": "uint256",
          "name": "",
          "type": "uint256"
        }
      ],
      "stateMutability": "pure",
      "type": "function"
    },
    {
      "inputs": [
        {
          "internalType": "uint256",
          "name": "_amount",
          "type": "uint256"
        },
        {
          "internalType": "address",
          "name": "_shop",
          "type": "address"
        }
      ],
      "name": "mint",
      "outputs": [],
      "stateMutability": "nonpayable",
      "type": "function"
    },
    {
      "inputs": [],
      "name": "name",
      "outputs": [
        {
          "internalType": "string",
          "name": "",
          "type": "string"
        }
      ],
      "stateMutability": "view",
      "type": "function"
    },
    {
      "inputs": [],
      "name": "symbol",
      "outputs": [
        {
          "internalType": "string",
          "name": "",
          "type": "string"
        }
      ],
      "stateMutability": "view",
      "type": "function"
    },
    {
      "inputs": [],
      "name": "totalSuply",
      "outputs": [
        {
          "internalType": "uint256",
          "name": "",
          "type": "uint256"
        }
      ],
      "stateMutability": "view",
      "type": "function"
    },
    {
      "inputs": [
        {
          "internalType": "address",
          "name": "_to",
          "type": "address"
        },
        {
          "internalType": "uint256",
          "name": "amount",
          "type": "uint256"
        }
      ],
      "name": "transfer",
      "outputs": [],
      "stateMutability": "nonpayable",
      "type": "function"
    },
    {
      "inputs": [
        {
          "internalType": "address",
          "name": "_sender",
          "type": "address"
        },
        {
          "internalType": "address",
          "name": "_recipient",
          "type": "address"
        },
        {
          "internalType": "uint256",
          "name": "_amount",
          "type": "uint256"
        }
      ],
      "name": "transferFrom",
      "outputs": [],
      "stateMutability": "nonpayable",
      "type": "function"
    }
  ],
  "bytecode": "0x60806040523480156200001157600080fd5b5060405162000b5a38038062000b5a83398101604081905262000034916200025f565b6040518060400160405280600d81526020016c2737bb37b9b0b2102a37b5b2b760991b81525060405180604001604052806004815260200163139594d560e21b8152506b033b2e3c9fd0803ce80000008383600490805190602001906200009d929190620001b9565b508251620000b3906005906020860190620001b9565b50600180546001600160a01b03191633179055620000d28282620000dd565b5050505050620002f5565b6001546001600160a01b031633146200012b5760405162461bcd60e51b815260206004820152600c60248201526b3737ba1030b71037bbb732b960a11b604482015260640160405180910390fd5b6001600160a01b038116600090815260026020526040812080548492906200015590849062000291565b92505081905550816000808282546200016f919062000291565b90915550506040518281526001600160a01b038216906000907fddf252ad1be2c89b69c2b068fc378daa952ba7f163c4a11628f55a4df523b3ef9060200160405180910390a35050565b828054620001c790620002b8565b90600052602060002090601f016020900481019282620001eb576000855562000236565b82601f106200020657805160ff191683800117855562000236565b8280016001018555821562000236579182015b828111156200023657825182559160200191906001019062000219565b506200024492915062000248565b5090565b5b8082111562000244576000815560010162000249565b6000602082840312156200027257600080fd5b81516001600160a01b03811681146200028a57600080fd5b9392505050565b60008219821115620002b357634e487b7160e01b600052601160045260246000fd5b500190565b600181811c90821680620002cd57607f821691505b60208210811415620002ef57634e487b7160e01b600052602260045260246000fd5b50919050565b61085580620003056000396000f3fe608060405234801561001057600080fd5b50600436106100a95760003560e01c806370a082311161007157806370a082311461011857806394bf804d1461014157806395d89b4114610154578063a2a967991461015c578063a9059cbb14610164578063dd62ed3e1461017757600080fd5b806306fdde03146100ae578063095ea7b3146100cc5780630d1118ce146100e157806323b872dd146100f4578063313ce56714610107575b600080fd5b6100b66101b0565b6040516100c39190610650565b60405180910390f35b6100df6100da3660046106c1565b610242565b005b6100df6100ef3660046106c1565b6102a2565b6100df6101023660046106eb565b610339565b60125b6040519081526020016100c3565b61010a610126366004610727565b6001600160a01b031660009081526002602052604090205490565b6100df61014f366004610749565b610489565b6100b6610555565b60005461010a565b6100df6101723660046106c1565b610564565b61010a610185366004610775565b6001600160a01b03918216600090815260036020908152604080832093909416825291909152205490565b6060600480546101bf9061079f565b80601f01602080910402602001604051908101604052809291908181526020018280546101eb9061079f565b80156102385780601f1061020d57610100808354040283529160200191610238565b820191906000526020600020905b81548152906001019060200180831161021b57829003601f168201915b5050505050905090565b3360008181526003602090815260408083206001600160a01b03871680855290835292819020859055518481529192917f6e11fb1b7f119e3f2fa29896ef5fdf8b8a2d0d4df6fe90ba8668e7d8b2ffa25e91015b60405180910390a35050565b6001546001600160a01b031633146102f05760405162461bcd60e51b815260206004820152600c60248201526b3737ba1030b71037bbb732b960a11b60448201526064015b60405180910390fd5b6001600160a01b038216600090815260026020526040812080548392906103189084906107f0565b925050819055508060008082825461033091906107f0565b90915550505050565b82818061035b836001600160a01b031660009081526002602052604090205490565b101561039d5760405162461bcd60e51b81526020600482015260116024820152706e6f7420656e6f75676820746f6b656e7360781b60448201526064016102e7565b6001600160a01b038086166000908152600360209081526040808320938816835292905290812080548592906103d49084906107f0565b90915550506001600160a01b038516600090815260026020526040812080548592906104019084906107f0565b90915550506001600160a01b0384166000908152600260205260408120805485929061042e908490610807565b92505081905550836001600160a01b0316856001600160a01b03167fddf252ad1be2c89b69c2b068fc378daa952ba7f163c4a11628f55a4df523b3ef8560405161047a91815260200190565b60405180910390a35050505050565b6001546001600160a01b031633146104d25760405162461bcd60e51b815260206004820152600c60248201526b3737ba1030b71037bbb732b960a11b60448201526064016102e7565b6001600160a01b038116600090815260026020526040812080548492906104fa908490610807565b92505081905550816000808282546105129190610807565b90915550506040518281526001600160a01b038216906000907fddf252ad1be2c89b69c2b068fc378daa952ba7f163c4a11628f55a4df523b3ef90602001610296565b6060600580546101bf9061079f565b3360008181526002602052604090205482908111156105b95760405162461bcd60e51b81526020600482015260116024820152706e6f7420656e6f75676820746f6b656e7360781b60448201526064016102e7565b33600090815260026020526040812080548592906105d89084906107f0565b90915550506001600160a01b03841660009081526002602052604081208054859290610605908490610807565b90915550506040518381526001600160a01b0385169033907fddf252ad1be2c89b69c2b068fc378daa952ba7f163c4a11628f55a4df523b3ef9060200160405180910390a350505050565b600060208083528351808285015260005b8181101561067d57858101830151858201604001528201610661565b8181111561068f576000604083870101525b50601f01601f1916929092016040019392505050565b80356001600160a01b03811681146106bc57600080fd5b919050565b600080604083850312156106d457600080fd5b6106dd836106a5565b946020939093013593505050565b60008060006060848603121561070057600080fd5b610709846106a5565b9250610717602085016106a5565b9150604084013590509250925092565b60006020828403121561073957600080fd5b610742826106a5565b9392505050565b6000806040838503121561075c57600080fd5b8235915061076c602084016106a5565b90509250929050565b6000806040838503121561078857600080fd5b610791836106a5565b915061076c602084016106a5565b600181811c908216806107b357607f821691505b602082108114156107d457634e487b7160e01b600052602260045260246000fd5b50919050565b634e487b7160e01b600052601160045260246000fd5b600082821015610802576108026107da565b500390565b6000821982111561081a5761081a6107da565b50019056fea2646970667358221220059041f54c623f5702319439258c5cd6cad58ab7cd722267e4b28703df116f0564736f6c63430008090033",
  "linkReferences": {},
  "deployedLinkReferences": {}
}